{
  "contractName": "GetterSetter",
  "abi": [
    {
      "inputs": [],
      "payable": false,
      "stateMutability": "nonpayable",
      "type": "constructor"
    },
    {
      "constant": false,
      "inputs": [
        {
          "name": "x",
          "type": "uint256"
        }
      ],
      "name": "setNumber",
      "outputs": [],
      "payable": false,
      "stateMutability": "nonpayable",
      "type": "function"
    },
    {
      "constant": true,
      "inputs": [],
      "name": "getNumber",
      "outputs": [
        {
          "name": "",
          "type": "uint256"
        }
      ],
      "payable": false,
      "stateMutability": "view",
      "type": "function"
    },
    {
      "constant": false,
      "inputs": [
        {
          "name": "s",
          "type": "string"
        }
      ],
      "name": "setString",
      "outputs": [],
      "payable": false,
      "stateMutability": "nonpayable",
      "type": "function"
    },
    {
      "constant": true,
      "inputs": [],
      "name": "getString",
      "outputs": [
        {
          "name": "",
          "type": "string"
        }
      ],
      "payable": false,
      "stateMutability": "view",
      "type": "function"
    }
  ],
  "bytecode": "0x608060405234801561001057600080fd5b506107e36000819055506040518060400160405280600781526020017f4e6f7275656761000000000000000000000000000000000000000000000000008152506001908051906020019061006592919061006b565b50610110565b828054600181600116156101000203166002900490600052602060002090601f016020900481019282601f106100ac57805160ff19168380011785556100da565b828001600101855582156100da579182015b828111156100d95782518255916020019190600101906100be565b5b5090506100e791906100eb565b5090565b61010d91905b808211156101095760008160009055506001016100f1565b5090565b90565b61037b8061011f6000396000f3fe608060405234801561001057600080fd5b506004361061004c5760003560e01c80633fb5c1cb146100515780637fcaf6661461007f57806389ea642f1461013a578063f2c9ecd8146101bd575b600080fd5b61007d6004803603602081101561006757600080fd5b81019080803590602001909291905050506101db565b005b6101386004803603602081101561009557600080fd5b81019080803590602001906401000000008111156100b257600080fd5b8201836020820111156100c457600080fd5b803590602001918460018302840111640100000000831117156100e657600080fd5b91908080601f016020809104026020016040519081016040528093929190818152602001838380828437600081840152601f19601f8201169050808301925050505050505091929192905050506101e5565b005b6101426101ff565b6040518080602001828103825283818151815260200191508051906020019080838360005b83811015610182578082015181840152602081019050610167565b50505050905090810190601f1680156101af5780820380516001836020036101000a031916815260200191505b509250505060405180910390f35b6101c56102a1565b6040518082815260200191505060405180910390f35b8060008190555050565b80600190805190602001906101fb9291906102aa565b5050565b606060018054600181600116156101000203166002900480601f0160208091040260200160405190810160405280929190818152602001828054600181600116156101000203166002900480156102975780601f1061026c57610100808354040283529160200191610297565b820191906000526020600020905b81548152906001019060200180831161027a57829003601f168201915b5050505050905090565b60008054905090565b828054600181600116156101000203166002900490600052602060002090601f016020900481019282601f106102eb57805160ff1916838001178555610319565b82800160010185558215610319579182015b828111156103185782518255916020019190600101906102fd565b5b509050610326919061032a565b5090565b61034c91905b80821115610348576000816000905550600101610330565b5090565b9056fea165627a7a7230582054af0ce33f2c7e6eac9912a9d7ff32d4b3029d192ceb785a792a8e63dfa05e010029",
  "source": "pragma solidity ^0.5.0;\n\ncontract GetterSetter {\n    uint storedNumber;\n    string storedString;\n\n    constructor () public {\n        storedNumber = 2019;\n        storedString = \"Noruega\";\n    }\n\n    function setNumber(uint x) public {\n        storedNumber = x;\n    }\n\n    function getNumber() public view returns (uint) {\n        return storedNumber;\n    }\n\n    function setString(string memory s) public {\n        storedString = s;\n    }\n\n    function getString() public view returns (string memory) {\n        return storedString;\n    }\n}",
  "sourcePath": "/Users/edgarherrador/Documents/Projects/DappExamples/React/contracts/GetterSetter.sol",
  "compiler": {
    "name": "solc",
    "version": "0.5.8+commit.23d335f2.Emscripten.clang"
  },
  "schemaVersion": "3.0.13",
  "updatedAt": "2019-12-13T18:55:10.885Z",
  "devdoc": {
    "methods": {}
  },
  "userdoc": {
    "methods": {}
  }
}